:100000000C9434000C943E000C943E000C943E0082
:100010000C943E000C943E000C943E000C943E0068
:100020000C943E000C943E000C943E000C943E0058
:100030000C943E000C943E000C943E000C943E0048
:100040000C943E000C943E000C943E000C943E0038
:100050000C943E000C943E000C943E000C943E0028
:100060000C943E000C943E0011241FBECFEFD8E04C
:10007000DEBFCDBF0E9440000C946B000C940000CA
:10008000DF93CF93CDB7DEB7A4E2B0E0E4E2F0E0D7
:1000900080818D7F8C93A7E2B0E0E7E2F0E0808181
:1000A00080648C93E3E2F0E08081882F90E082709E
:1000B0009070009741F0A8E2B0E0E8E2F0E08081C3
:1000C00080648C93EFCFA8E2B0E0E8E2F0E08081BA
:0A00D0008F7B8C93E7CFF894FFCFED
:00000001FF
